{
  "_format": "hh-sol-artifact-1",
  "contractName": "ERC20Vesting",
  "sourceName": "contracts/ERC20Vesting.sol",
  "abi": [
    {
      "inputs": [
        {
          "internalType": "address",
          "name": "_tokenAddress",
          "type": "address"
        },
        {
          "internalType": "uint256",
          "name": "_startTime",
          "type": "uint256"
        },
        {
          "internalType": "uint256",
          "name": "_duration",
          "type": "uint256"
        },
        {
          "internalType": "address[]",
          "name": "_receivers",
          "type": "address[]"
        },
        {
          "internalType": "uint256[]",
          "name": "_amounts",
          "type": "uint256[]"
        }
      ],
      "stateMutability": "nonpayable",
      "type": "constructor"
    },
    {
      "anonymous": false,
      "inputs": [
        {
          "indexed": false,
          "internalType": "address",
          "name": "receiver",
          "type": "address"
        },
        {
          "indexed": false,
          "internalType": "uint256",
          "name": "amount",
          "type": "uint256"
        }
      ],
      "name": "Claim",
      "type": "event"
    },
    {
      "anonymous": false,
      "inputs": [
        {
          "indexed": true,
          "internalType": "address",
          "name": "previousOwner",
          "type": "address"
        },
        {
          "indexed": true,
          "internalType": "address",
          "name": "newOwner",
          "type": "address"
        }
      ],
      "name": "OwnershipTransferred",
      "type": "event"
    },
    {
      "anonymous": false,
      "inputs": [
        {
          "indexed": false,
          "internalType": "address",
          "name": "tokenAddress",
          "type": "address"
        },
        {
          "indexed": false,
          "internalType": "address",
          "name": "receiver",
          "type": "address"
        },
        {
          "indexed": false,
          "internalType": "uint256",
          "name": "amount",
          "type": "uint256"
        }
      ],
      "name": "RescueERC20",
      "type": "event"
    },
    {
      "inputs": [
        {
          "internalType": "address",
          "name": "_receiver",
          "type": "address"
        }
      ],
      "name": "allocationByAddress",
      "outputs": [
        {
          "internalType": "uint256",
          "name": "",
          "type": "uint256"
        }
      ],
      "stateMutability": "view",
      "type": "function"
    },
    {
      "inputs": [],
      "name": "allocations",
      "outputs": [
        {
          "internalType": "address[]",
          "name": "_receivers",
          "type": "address[]"
        },
        {
          "internalType": "uint256[]",
          "name": "_amounts",
          "type": "uint256[]"
        }
      ],
      "stateMutability": "view",
      "type": "function"
    },
    {
      "inputs": [
        {
          "internalType": "address",
          "name": "_receiver",
          "type": "address"
        }
      ],
      "name": "claim",
      "outputs": [],
      "stateMutability": "nonpayable",
      "type": "function"
    },
    {
      "inputs": [
        {
          "internalType": "address",
          "name": "_receiver",
          "type": "address"
        }
      ],
      "name": "claimedByAddress",
      "outputs": [
        {
          "internalType": "uint256",
          "name": "",
          "type": "uint256"
        }
      ],
      "stateMutability": "view",
      "type": "function"
    },
    {
      "inputs": [],
      "name": "duration",
      "outputs": [
        {
          "internalType": "uint256",
          "name": "",
          "type": "uint256"
        }
      ],
      "stateMutability": "view",
      "type": "function"
    },
    {
      "inputs": [
        {
          "internalType": "address",
          "name": "_receiver",
          "type": "address"
        }
      ],
      "name": "isReceiver",
      "outputs": [
        {
          "internalType": "bool",
          "name": "",
          "type": "bool"
        }
      ],
      "stateMutability": "view",
      "type": "function"
    },
    {
      "inputs": [],
      "name": "owner",
      "outputs": [
        {
          "internalType": "address",
          "name": "",
          "type": "address"
        }
      ],
      "stateMutability": "view",
      "type": "function"
    },
    {
      "inputs": [],
      "name": "progress",
      "outputs": [
        {
          "internalType": "uint256",
          "name": "_progress",
          "type": "uint256"
        }
      ],
      "stateMutability": "view",
      "type": "function"
    },
    {
      "inputs": [],
      "name": "receivers",
      "outputs": [
        {
          "internalType": "address[]",
          "name": "_receivers",
          "type": "address[]"
        }
      ],
      "stateMutability": "view",
      "type": "function"
    },
    {
      "inputs": [
        {
          "internalType": "address",
          "name": "_receiver",
          "type": "address"
        }
      ],
      "name": "releasedByAddress",
      "outputs": [
        {
          "internalType": "uint256",
          "name": "",
          "type": "uint256"
        }
      ],
      "stateMutability": "view",
      "type": "function"
    },
    {
      "inputs": [],
      "name": "renounceOwnership",
      "outputs": [],
      "stateMutability": "nonpayable",
      "type": "function"
    },
    {
      "inputs": [
        {
          "internalType": "address",
          "name": "_tokenAddress",
          "type": "address"
        }
      ],
      "name": "rescueERC20",
      "outputs": [],
      "stateMutability": "nonpayable",
      "type": "function"
    },
    {
      "inputs": [],
      "name": "startTime",
      "outputs": [
        {
          "internalType": "uint256",
          "name": "",
          "type": "uint256"
        }
      ],
      "stateMutability": "view",
      "type": "function"
    },
    {
      "inputs": [],
      "name": "sumAllocated",
      "outputs": [
        {
          "internalType": "uint256",
          "name": "",
          "type": "uint256"
        }
      ],
      "stateMutability": "view",
      "type": "function"
    },
    {
      "inputs": [],
      "name": "sumClaimed",
      "outputs": [
        {
          "internalType": "uint256",
          "name": "_sum",
          "type": "uint256"
        }
      ],
      "stateMutability": "view",
      "type": "function"
    },
    {
      "inputs": [],
      "name": "sumReleased",
      "outputs": [
        {
          "internalType": "uint256",
          "name": "_sum",
          "type": "uint256"
        }
      ],
      "stateMutability": "view",
      "type": "function"
    },
    {
      "inputs": [],
      "name": "sumUnclaimed",
      "outputs": [
        {
          "internalType": "uint256",
          "name": "_sum",
          "type": "uint256"
        }
      ],
      "stateMutability": "view",
      "type": "function"
    },
    {
      "inputs": [],
      "name": "token",
      "outputs": [
        {
          "internalType": "contract IERC20",
          "name": "",
          "type": "address"
        }
      ],
      "stateMutability": "view",
      "type": "function"
    },
    {
      "inputs": [
        {
          "internalType": "address",
          "name": "newOwner",
          "type": "address"
        }
      ],
      "name": "transferOwnership",
      "outputs": [],
      "stateMutability": "nonpayable",
      "type": "function"
    },
    {
      "inputs": [
        {
          "internalType": "address",
          "name": "_receiver",
          "type": "address"
        }
      ],
      "name": "unclaimedByAddress",
      "outputs": [
        {
          "internalType": "uint256",
          "name": "",
          "type": "uint256"
        }
      ],
      "stateMutability": "view",
      "type": "function"
    }
  ],
  "bytecode": "0x60806040523480156200001157600080fd5b50604051620011b7380380620011b783398101604081905262000034916200036d565b6200003f3362000113565b600480546001600160a01b0319166001600160a01b0387161790556001849055600283905580518251146200007357600080fd5b60005b8251811015620000f857600083828151811062000097576200009762000466565b602002602001015190506000838381518110620000b857620000b862000466565b60200260200101519050620000df828260056200016360201b6200084e179092919060201c565b5050508080620000ef9062000492565b91505062000076565b50620001048162000183565b60035550620004c49350505050565b600080546001600160a01b038381166001600160a01b0319831681178455604051919092169283917f8be0079c531659141344cd1fd0a4f28419497f9722a3daafe3b4186f6b6457e09190a35050565b60006200017b846001600160a01b03851684620001d8565b949350505050565b6000805b8251811015620001d257828181518110620001a657620001a662000466565b602002602001015182620001bb9190620004ae565b915080620001c98162000492565b91505062000187565b50919050565b6000828152600284016020908152604082208390556200017b90859085906200086c62000205821b17901c565b60006200021383836200021c565b90505b92915050565b6000818152600183016020526040812054620002655750815460018181018455600084815260208082209093018490558454848252828601909352604090209190915562000216565b50600062000216565b80516001600160a01b03811681146200028657600080fd5b919050565b634e487b7160e01b600052604160045260246000fd5b604051601f8201601f191681016001600160401b0381118282101715620002cc57620002cc6200028b565b604052919050565b60006001600160401b03821115620002f057620002f06200028b565b5060051b60200190565b600082601f8301126200030c57600080fd5b81516020620003256200031f83620002d4565b620002a1565b82815260059290921b840181019181810190868411156200034557600080fd5b8286015b8481101562000362578051835291830191830162000349565b509695505050505050565b600080600080600060a086880312156200038657600080fd5b62000391866200026e565b602087810151604089015160608a01519398509096509450906001600160401b0380821115620003c057600080fd5b818901915089601f830112620003d557600080fd5b8151620003e66200031f82620002d4565b81815260059190911b8301840190848101908c8311156200040657600080fd5b938501935b828510156200042f576200041f856200026e565b825293850193908501906200040b565b60808c015190975094505050808311156200044957600080fd5b50506200045988828901620002fa565b9150509295509295909350565b634e487b7160e01b600052603260045260246000fd5b634e487b7160e01b600052601160045260246000fd5b600060018201620004a757620004a76200047c565b5060010190565b808201808211156200021657620002166200047c565b610ce380620004d46000396000f3fe608060405234801561001057600080fd5b506004361061012c5760003560e01c806361feeccc116100ad5780638e23a304116100715780638e23a3041461023d578063c358234b14610245578063ccec37161461025b578063f2fde38b1461026e578063fc0c546a1461028157600080fd5b806361feeccc146101f6578063715018a6146101fe57806377cff0b31461020657806378e979251461020f5780638da5cb5b1461021857600080fd5b8063392243e1116100f4578063392243e1146101925780633cd2c82a146101b55780633f46ce72146101c857806346177edb146101db578063577bd336146101ee57600080fd5b80630fb5a6b4146101315780631762e9721461014d5780631e83409a1461015557806328592fc61461016a578063341683911461017d575b600080fd5b61013a60025481565b6040519081526020015b60405180910390f35b61013a610294565b610168610163366004610ae1565b6102b5565b005b61013a610178366004610ae1565b6103d5565b6101856103ff565b6040516101449190610b4e565b6101a56101a0366004610ae1565b610411565b6040519015158152602001610144565b61013a6101c3366004610ae1565b610424565b61013a6101d6366004610ae1565b610437565b61013a6101e9366004610ae1565b610446565b61013a610464565b61013a6104d0565b61016861051d565b61013a60035481565b61013a60015481565b6000546001600160a01b03165b6040516001600160a01b039091168152602001610144565b61013a610531565b61024d61053e565b604051610144929190610b61565b610168610269366004610ae1565b610663565b61016861027c366004610ae1565b6107d0565b600454610225906001600160a01b031681565b600061029e6104d0565b6102a6610531565b6102b09190610bce565b905090565b60015442116102c357600080fd5b60006102ce82610446565b6004805460405163a9059cbb60e01b81526001600160a01b038681169382019390935260248101849052929350169063a9059cbb906044016020604051808303816000875af1158015610325573d6000803e3d6000fd5b505050506040513d601f19601f820116820180604052508101906103499190610be1565b5060008061035860088561087f565b91509150811561037f57610379846103708584610c03565b6008919061084e565b5061038d565b61038b6008858561084e565b505b604080516001600160a01b0386168152602081018590527f47cee97cb7acd717b3c0aa1435d004cd5b3c8c57d70dbceb4e4458bbd60e39d4910160405180910390a150505050565b600080806103e460088561087f565b9150915081156103f5579392505050565b5060009392505050565b60608061040a61053e565b5092915050565b600061041e6005836108a6565b92915050565b600061041e61043283610437565b6108bb565b600080806103e460058561087f565b6000610451826103d5565b61045a83610424565b61041e9190610bce565b600060015442116104755750600090565b6002546001546104859190610c03565b42106104985750670de0b6b3a764000090565b6000600154426104a89190610bce565b6002549091506104c082670de0b6b3a7640000610c16565b6104ca9190610c2d565b91505090565b6000805b6104de60086108e2565b811015610519576000806104f36008846108ed565b90925090506105028185610c03565b93505050808061051190610c4f565b9150506104d4565b5090565b6105256108fc565b61052f6000610956565b565b60006102b06003546108bb565b606080600061054d60056108e2565b90508067ffffffffffffffff81111561056857610568610c68565b604051908082528060200260200182016040528015610591578160200160208202803683370190505b5092508067ffffffffffffffff8111156105ad576105ad610c68565b6040519080825280602002602001820160405280156105d6578160200160208202803683370190505b50915060005b8181101561065d576000806105f26005846108ed565b915091508186848151811061060957610609610c7e565b60200260200101906001600160a01b031690816001600160a01b0316815250508085848151811061063c5761063c610c7e565b6020026020010181815250505050808061065590610c4f565b9150506105dc565b50509091565b61066b6108fc565b6040516370a0823160e01b815230600482015281906000906001600160a01b038316906370a0823190602401602060405180830381865afa1580156106b4573d6000803e3d6000fd5b505050506040513d601f19601f820116820180604052508101906106d89190610c94565b9050816001600160a01b031663a9059cbb6106fb6000546001600160a01b031690565b6040516001600160e01b031960e084901b1681526001600160a01b039091166004820152602481018490526044016020604051808303816000875af1158015610748573d6000803e3d6000fd5b505050506040513d601f19601f8201168201806040525081019061076c9190610be1565b507f9b793652de97f04c5168920587bad4b1c6345295a8f5ad31c59ff946a26f91d2836107a16000546001600160a01b031690565b604080516001600160a01b039384168152929091166020830152810183905260600160405180910390a1505050565b6107d86108fc565b6001600160a01b0381166108425760405162461bcd60e51b815260206004820152602660248201527f4f776e61626c653a206e6577206f776e657220697320746865207a65726f206160448201526564647265737360d01b60648201526084015b60405180910390fd5b61084b81610956565b50565b6000610864846001600160a01b038516846109a6565b949350505050565b600061087883836109c3565b9392505050565b6000808080610897866001600160a01b038716610a12565b909450925050505b9250929050565b6000610878836001600160a01b038416610a4c565b6000670de0b6b3a76400006108ce610464565b6108d89084610c16565b61041e9190610c2d565b600061041e82610a58565b60008080806108978686610a63565b6000546001600160a01b0316331461052f5760405162461bcd60e51b815260206004820181905260248201527f4f776e61626c653a2063616c6c6572206973206e6f7420746865206f776e65726044820152606401610839565b600080546001600160a01b038381166001600160a01b0319831681178455604051919092169283917f8be0079c531659141344cd1fd0a4f28419497f9722a3daafe3b4186f6b6457e09190a35050565b60008281526002840160205260408120829055610864848461086c565b6000818152600183016020526040812054610a0a5750815460018181018455600084815260208082209093018490558454848252828601909352604090209190915561041e565b50600061041e565b6000818152600283016020526040812054819080610a4157610a348585610a4c565b92506000915061089f9050565b60019250905061089f565b60006108788383610a8e565b600061041e82610aa6565b60008080610a718585610ab0565b600081815260029690960160205260409095205494959350505050565b60008181526001830160205260408120541515610878565b600061041e825490565b600061087883836000826000018281548110610ace57610ace610c7e565b9060005260206000200154905092915050565b600060208284031215610af357600080fd5b81356001600160a01b038116811461087857600080fd5b600081518084526020808501945080840160005b83811015610b435781516001600160a01b031687529582019590820190600101610b1e565b509495945050505050565b6020815260006108786020830184610b0a565b604081526000610b746040830185610b0a565b82810360208481019190915284518083528582019282019060005b81811015610bab57845183529383019391830191600101610b8f565b5090979650505050505050565b634e487b7160e01b600052601160045260246000fd5b8181038181111561041e5761041e610bb8565b600060208284031215610bf357600080fd5b8151801515811461087857600080fd5b8082018082111561041e5761041e610bb8565b808202811582820484141761041e5761041e610bb8565b600082610c4a57634e487b7160e01b600052601260045260246000fd5b500490565b600060018201610c6157610c61610bb8565b5060010190565b634e487b7160e01b600052604160045260246000fd5b634e487b7160e01b600052603260045260246000fd5b600060208284031215610ca657600080fd5b505191905056fea264697066735822122081fa49198b48061533065e32e0bfce27ad3eb720ce3fc21632f5c5511360094e64736f6c63430008110033",
  "linkReferences": {},
  "deployedLinkReferences": {}
}