{
  "_format": "hh-sol-artifact-1",
  "contractName": "ERC20Vesting",
  "sourceName": "contracts/ERC20Vesting.sol",
  "abi": [
    {
      "inputs": [
        {
          "internalType": "address",
          "name": "_tokenAddress",
          "type": "address"
        },
        {
          "internalType": "uint256",
          "name": "_startTime",
          "type": "uint256"
        },
        {
          "internalType": "uint256",
          "name": "_duration",
          "type": "uint256"
        },
        {
          "internalType": "address[]",
          "name": "_receivers",
          "type": "address[]"
        },
        {
          "internalType": "uint256[]",
          "name": "_amounts",
          "type": "uint256[]"
        }
      ],
      "stateMutability": "nonpayable",
      "type": "constructor"
    },
    {
      "anonymous": false,
      "inputs": [
        {
          "indexed": false,
          "internalType": "address",
          "name": "receiver",
          "type": "address"
        },
        {
          "indexed": false,
          "internalType": "uint256",
          "name": "amount",
          "type": "uint256"
        }
      ],
      "name": "Claim",
      "type": "event"
    },
    {
      "anonymous": false,
      "inputs": [
        {
          "indexed": true,
          "internalType": "address",
          "name": "previousOwner",
          "type": "address"
        },
        {
          "indexed": true,
          "internalType": "address",
          "name": "newOwner",
          "type": "address"
        }
      ],
      "name": "OwnershipTransferred",
      "type": "event"
    },
    {
      "anonymous": false,
      "inputs": [
        {
          "indexed": false,
          "internalType": "address",
          "name": "tokenAddress",
          "type": "address"
        },
        {
          "indexed": false,
          "internalType": "address",
          "name": "receiver",
          "type": "address"
        },
        {
          "indexed": false,
          "internalType": "uint256",
          "name": "amount",
          "type": "uint256"
        }
      ],
      "name": "RescueERC20",
      "type": "event"
    },
    {
      "inputs": [
        {
          "internalType": "address",
          "name": "_receiver",
          "type": "address"
        }
      ],
      "name": "allocationByAddress",
      "outputs": [
        {
          "internalType": "uint256",
          "name": "",
          "type": "uint256"
        }
      ],
      "stateMutability": "view",
      "type": "function"
    },
    {
      "inputs": [],
      "name": "allocations",
      "outputs": [
        {
          "internalType": "address[]",
          "name": "_receivers",
          "type": "address[]"
        },
        {
          "internalType": "uint256[]",
          "name": "_amounts",
          "type": "uint256[]"
        }
      ],
      "stateMutability": "view",
      "type": "function"
    },
    {
      "inputs": [
        {
          "internalType": "address",
          "name": "_receiver",
          "type": "address"
        }
      ],
      "name": "claim",
      "outputs": [],
      "stateMutability": "nonpayable",
      "type": "function"
    },
    {
      "inputs": [
        {
          "internalType": "address",
          "name": "_receiver",
          "type": "address"
        }
      ],
      "name": "claimedByAddress",
      "outputs": [
        {
          "internalType": "uint256",
          "name": "",
          "type": "uint256"
        }
      ],
      "stateMutability": "view",
      "type": "function"
    },
    {
      "inputs": [],
      "name": "duration",
      "outputs": [
        {
          "internalType": "uint256",
          "name": "",
          "type": "uint256"
        }
      ],
      "stateMutability": "view",
      "type": "function"
    },
    {
      "inputs": [],
      "name": "owner",
      "outputs": [
        {
          "internalType": "address",
          "name": "",
          "type": "address"
        }
      ],
      "stateMutability": "view",
      "type": "function"
    },
    {
      "inputs": [],
      "name": "progress",
      "outputs": [
        {
          "internalType": "uint256",
          "name": "_progress",
          "type": "uint256"
        }
      ],
      "stateMutability": "view",
      "type": "function"
    },
    {
      "inputs": [],
      "name": "receivers",
      "outputs": [
        {
          "internalType": "address[]",
          "name": "_receivers",
          "type": "address[]"
        }
      ],
      "stateMutability": "view",
      "type": "function"
    },
    {
      "inputs": [
        {
          "internalType": "address",
          "name": "_receiver",
          "type": "address"
        }
      ],
      "name": "releasedByAddress",
      "outputs": [
        {
          "internalType": "uint256",
          "name": "",
          "type": "uint256"
        }
      ],
      "stateMutability": "view",
      "type": "function"
    },
    {
      "inputs": [],
      "name": "renounceOwnership",
      "outputs": [],
      "stateMutability": "nonpayable",
      "type": "function"
    },
    {
      "inputs": [
        {
          "internalType": "address",
          "name": "_tokenAddress",
          "type": "address"
        }
      ],
      "name": "rescueERC20",
      "outputs": [],
      "stateMutability": "nonpayable",
      "type": "function"
    },
    {
      "inputs": [],
      "name": "startTime",
      "outputs": [
        {
          "internalType": "uint256",
          "name": "",
          "type": "uint256"
        }
      ],
      "stateMutability": "view",
      "type": "function"
    },
    {
      "inputs": [],
      "name": "sumAllocated",
      "outputs": [
        {
          "internalType": "uint256",
          "name": "",
          "type": "uint256"
        }
      ],
      "stateMutability": "view",
      "type": "function"
    },
    {
      "inputs": [],
      "name": "sumClaimed",
      "outputs": [
        {
          "internalType": "uint256",
          "name": "_sum",
          "type": "uint256"
        }
      ],
      "stateMutability": "view",
      "type": "function"
    },
    {
      "inputs": [],
      "name": "sumReleased",
      "outputs": [
        {
          "internalType": "uint256",
          "name": "_sum",
          "type": "uint256"
        }
      ],
      "stateMutability": "view",
      "type": "function"
    },
    {
      "inputs": [],
      "name": "sumUnclaimed",
      "outputs": [
        {
          "internalType": "uint256",
          "name": "_sum",
          "type": "uint256"
        }
      ],
      "stateMutability": "view",
      "type": "function"
    },
    {
      "inputs": [],
      "name": "token",
      "outputs": [
        {
          "internalType": "contract IERC20",
          "name": "",
          "type": "address"
        }
      ],
      "stateMutability": "view",
      "type": "function"
    },
    {
      "inputs": [
        {
          "internalType": "address",
          "name": "newOwner",
          "type": "address"
        }
      ],
      "name": "transferOwnership",
      "outputs": [],
      "stateMutability": "nonpayable",
      "type": "function"
    },
    {
      "inputs": [
        {
          "internalType": "address",
          "name": "_receiver",
          "type": "address"
        }
      ],
      "name": "unclaimedByAddress",
      "outputs": [
        {
          "internalType": "uint256",
          "name": "",
          "type": "uint256"
        }
      ],
      "stateMutability": "view",
      "type": "function"
    }
  ],
  "bytecode": "0x60806040523480156200001157600080fd5b506040516200116c3803806200116c83398101604081905262000034916200036d565b6200003f3362000113565b600480546001600160a01b0319166001600160a01b0387161790556001849055600283905580518251146200007357600080fd5b60005b8251811015620000f857600083828151811062000097576200009762000466565b602002602001015190506000838381518110620000b857620000b862000466565b60200260200101519050620000df828260056200016360201b62000813179092919060201c565b5050508080620000ef9062000492565b91505062000076565b50620001048162000183565b60035550620004c49350505050565b600080546001600160a01b038381166001600160a01b0319831681178455604051919092169283917f8be0079c531659141344cd1fd0a4f28419497f9722a3daafe3b4186f6b6457e09190a35050565b60006200017b846001600160a01b03851684620001d8565b949350505050565b6000805b8251811015620001d257828181518110620001a657620001a662000466565b602002602001015182620001bb9190620004ae565b915080620001c98162000492565b91505062000187565b50919050565b6000828152600284016020908152604082208390556200017b90859085906200083162000205821b17901c565b60006200021383836200021c565b90505b92915050565b6000818152600183016020526040812054620002655750815460018181018455600084815260208082209093018490558454848252828601909352604090209190915562000216565b50600062000216565b80516001600160a01b03811681146200028657600080fd5b919050565b634e487b7160e01b600052604160045260246000fd5b604051601f8201601f191681016001600160401b0381118282101715620002cc57620002cc6200028b565b604052919050565b60006001600160401b03821115620002f057620002f06200028b565b5060051b60200190565b600082601f8301126200030c57600080fd5b81516020620003256200031f83620002d4565b620002a1565b82815260059290921b840181019181810190868411156200034557600080fd5b8286015b8481101562000362578051835291830191830162000349565b509695505050505050565b600080600080600060a086880312156200038657600080fd5b62000391866200026e565b602087810151604089015160608a01519398509096509450906001600160401b0380821115620003c057600080fd5b818901915089601f830112620003d557600080fd5b8151620003e66200031f82620002d4565b81815260059190911b8301840190848101908c8311156200040657600080fd5b938501935b828510156200042f576200041f856200026e565b825293850193908501906200040b565b60808c015190975094505050808311156200044957600080fd5b50506200045988828901620002fa565b9150509295509295909350565b634e487b7160e01b600052603260045260246000fd5b634e487b7160e01b600052601160045260246000fd5b600060018201620004a757620004a76200047c565b5060010190565b808201808211156200021657620002166200047c565b610c9880620004d46000396000f3fe608060405234801561001057600080fd5b50600436106101215760003560e01c806361feeccc116100ad5780638e23a304116100715780638e23a3041461020f578063c358234b14610217578063ccec37161461022d578063f2fde38b14610240578063fc0c546a1461025357600080fd5b806361feeccc146101c8578063715018a6146101d057806377cff0b3146101d857806378e97925146101e15780638da5cb5b146101ea57600080fd5b806334168391116100f457806334168391146101725780633cd2c82a146101875780633f46ce721461019a57806346177edb146101ad578063577bd336146101c057600080fd5b80630fb5a6b4146101265780631762e972146101425780631e83409a1461014a57806328592fc61461015f575b600080fd5b61012f60025481565b6040519081526020015b60405180910390f35b61012f610266565b61015d610158366004610a96565b610287565b005b61012f61016d366004610a96565b6103a7565b61017a6103d1565b6040516101399190610b03565b61012f610195366004610a96565b6103e3565b61012f6101a8366004610a96565b6103fc565b61012f6101bb366004610a96565b61040b565b61012f610429565b61012f610495565b61015d6104e2565b61012f60035481565b61012f60015481565b6000546001600160a01b03165b6040516001600160a01b039091168152602001610139565b61012f6104f6565b61021f610503565b604051610139929190610b16565b61015d61023b366004610a96565b610628565b61015d61024e366004610a96565b610795565b6004546101f7906001600160a01b031681565b6000610270610495565b6102786104f6565b6102829190610b83565b905090565b600154421161029557600080fd5b60006102a08261040b565b6004805460405163a9059cbb60e01b81526001600160a01b038681169382019390935260248101849052929350169063a9059cbb906044016020604051808303816000875af11580156102f7573d6000803e3d6000fd5b505050506040513d601f19601f8201168201806040525081019061031b9190610b96565b5060008061032a600885610844565b9150915081156103515761034b846103428584610bb8565b60089190610813565b5061035f565b61035d60088585610813565b505b604080516001600160a01b0386168152602081018590527f47cee97cb7acd717b3c0aa1435d004cd5b3c8c57d70dbceb4e4458bbd60e39d4910160405180910390a150505050565b600080806103b6600885610844565b9150915081156103c7579392505050565b5060009392505050565b6060806103dc610503565b5092915050565b60006103f66103f1836103fc565b61086b565b92915050565b600080806103b6600585610844565b6000610416826103a7565b61041f836103e3565b6103f69190610b83565b6000600154420361043a5750600090565b60025460015461044a9190610bb8565b421061045d5750670de0b6b3a764000090565b60006001544261046d9190610b83565b60025490915061048582670de0b6b3a7640000610bcb565b61048f9190610be2565b91505090565b6000805b6104a36008610892565b8110156104de576000806104b860088461089d565b90925090506104c78185610bb8565b9350505080806104d690610c04565b915050610499565b5090565b6104ea6108ac565b6104f46000610906565b565b600061028260035461086b565b60608060006105126005610892565b90508067ffffffffffffffff81111561052d5761052d610c1d565b604051908082528060200260200182016040528015610556578160200160208202803683370190505b5092508067ffffffffffffffff81111561057257610572610c1d565b60405190808252806020026020018201604052801561059b578160200160208202803683370190505b50915060005b81811015610622576000806105b760058461089d565b91509150818684815181106105ce576105ce610c33565b60200260200101906001600160a01b031690816001600160a01b0316815250508085848151811061060157610601610c33565b6020026020010181815250505050808061061a90610c04565b9150506105a1565b50509091565b6106306108ac565b6040516370a0823160e01b815230600482015281906000906001600160a01b038316906370a0823190602401602060405180830381865afa158015610679573d6000803e3d6000fd5b505050506040513d601f19601f8201168201806040525081019061069d9190610c49565b9050816001600160a01b031663a9059cbb6106c06000546001600160a01b031690565b6040516001600160e01b031960e084901b1681526001600160a01b039091166004820152602481018490526044016020604051808303816000875af115801561070d573d6000803e3d6000fd5b505050506040513d601f19601f820116820180604052508101906107319190610b96565b507f9b793652de97f04c5168920587bad4b1c6345295a8f5ad31c59ff946a26f91d2836107666000546001600160a01b031690565b604080516001600160a01b039384168152929091166020830152810183905260600160405180910390a1505050565b61079d6108ac565b6001600160a01b0381166108075760405162461bcd60e51b815260206004820152602660248201527f4f776e61626c653a206e6577206f776e657220697320746865207a65726f206160448201526564647265737360d01b60648201526084015b60405180910390fd5b61081081610906565b50565b6000610829846001600160a01b03851684610956565b949350505050565b600061083d8383610973565b9392505050565b600080808061085c866001600160a01b0387166109c2565b909450925050505b9250929050565b6000670de0b6b3a764000061087e610429565b6108889084610bcb565b6103f69190610be2565b60006103f6826109fc565b600080808061085c8686610a07565b6000546001600160a01b031633146104f45760405162461bcd60e51b815260206004820181905260248201527f4f776e61626c653a2063616c6c6572206973206e6f7420746865206f776e657260448201526064016107fe565b600080546001600160a01b038381166001600160a01b0319831681178455604051919092169283917f8be0079c531659141344cd1fd0a4f28419497f9722a3daafe3b4186f6b6457e09190a35050565b600082815260028401602052604081208290556108298484610831565b60008181526001830160205260408120546109ba575081546001818101845560008481526020808220909301849055845484825282860190935260409020919091556103f6565b5060006103f6565b60008181526002830160205260408120548190806109f1576109e48585610a32565b9250600091506108649050565b600192509050610864565b60006103f682610a3e565b60008080610a158585610a48565b600081815260029690960160205260409095205494959350505050565b600061083d8383610a54565b60006103f6825490565b600061083d8383610a6c565b6000818152600183016020526040812054151561083d565b6000826000018281548110610a8357610a83610c33565b9060005260206000200154905092915050565b600060208284031215610aa857600080fd5b81356001600160a01b038116811461083d57600080fd5b600081518084526020808501945080840160005b83811015610af85781516001600160a01b031687529582019590820190600101610ad3565b509495945050505050565b60208152600061083d6020830184610abf565b604081526000610b296040830185610abf565b82810360208481019190915284518083528582019282019060005b81811015610b6057845183529383019391830191600101610b44565b5090979650505050505050565b634e487b7160e01b600052601160045260246000fd5b818103818111156103f6576103f6610b6d565b600060208284031215610ba857600080fd5b8151801515811461083d57600080fd5b808201808211156103f6576103f6610b6d565b80820281158282048414176103f6576103f6610b6d565b600082610bff57634e487b7160e01b600052601260045260246000fd5b500490565b600060018201610c1657610c16610b6d565b5060010190565b634e487b7160e01b600052604160045260246000fd5b634e487b7160e01b600052603260045260246000fd5b600060208284031215610c5b57600080fd5b505191905056fea264697066735822122061df7688317db3caf0896869ba934d2892d248a17297e6dcc7c0a90104ef323c64736f6c63430008110033",
  "linkReferences": {},
  "deployedLinkReferences": {}
}