{
  "_format": "hh-sol-artifact-1",
  "contractName": "Vault",
  "sourceName": "contracts/Vault.sol",
  "abi": [
    {
      "inputs": [],
      "stateMutability": "nonpayable",
      "type": "constructor"
    },
    {
      "anonymous": false,
      "inputs": [
        {
          "indexed": false,
          "internalType": "uint256[]",
          "name": "ids",
          "type": "uint256[]"
        }
      ],
      "name": "BulkERC20Deposited",
      "type": "event"
    },
    {
      "anonymous": false,
      "inputs": [
        {
          "indexed": false,
          "internalType": "uint256",
          "name": "id",
          "type": "uint256"
        },
        {
          "indexed": true,
          "internalType": "address",
          "name": "token",
          "type": "address"
        },
        {
          "indexed": false,
          "internalType": "uint256",
          "name": "amount",
          "type": "uint256"
        }
      ],
      "name": "ERC20Deposited",
      "type": "event"
    },
    {
      "anonymous": false,
      "inputs": [
        {
          "indexed": false,
          "internalType": "uint256",
          "name": "id",
          "type": "uint256"
        },
        {
          "indexed": true,
          "internalType": "address",
          "name": "token",
          "type": "address"
        },
        {
          "indexed": false,
          "internalType": "uint256",
          "name": "amount",
          "type": "uint256"
        }
      ],
      "name": "ERC20Released",
      "type": "event"
    },
    {
      "anonymous": false,
      "inputs": [
        {
          "indexed": false,
          "internalType": "address",
          "name": "token",
          "type": "address"
        },
        {
          "indexed": false,
          "internalType": "uint256",
          "name": "amount",
          "type": "uint256"
        }
      ],
      "name": "RescuedERC20",
      "type": "event"
    },
    {
      "anonymous": false,
      "inputs": [
        {
          "indexed": false,
          "internalType": "uint256",
          "name": "amount",
          "type": "uint256"
        }
      ],
      "name": "RescuedETH",
      "type": "event"
    },
    {
      "anonymous": false,
      "inputs": [
        {
          "indexed": true,
          "internalType": "bytes32",
          "name": "role",
          "type": "bytes32"
        },
        {
          "indexed": true,
          "internalType": "bytes32",
          "name": "previousAdminRole",
          "type": "bytes32"
        },
        {
          "indexed": true,
          "internalType": "bytes32",
          "name": "newAdminRole",
          "type": "bytes32"
        }
      ],
      "name": "RoleAdminChanged",
      "type": "event"
    },
    {
      "anonymous": false,
      "inputs": [
        {
          "indexed": true,
          "internalType": "bytes32",
          "name": "role",
          "type": "bytes32"
        },
        {
          "indexed": true,
          "internalType": "address",
          "name": "account",
          "type": "address"
        },
        {
          "indexed": true,
          "internalType": "address",
          "name": "sender",
          "type": "address"
        }
      ],
      "name": "RoleGranted",
      "type": "event"
    },
    {
      "anonymous": false,
      "inputs": [
        {
          "indexed": true,
          "internalType": "bytes32",
          "name": "role",
          "type": "bytes32"
        },
        {
          "indexed": true,
          "internalType": "address",
          "name": "account",
          "type": "address"
        },
        {
          "indexed": true,
          "internalType": "address",
          "name": "sender",
          "type": "address"
        }
      ],
      "name": "RoleRevoked",
      "type": "event"
    },
    {
      "inputs": [],
      "name": "DEFAULT_ADMIN_ROLE",
      "outputs": [
        {
          "internalType": "bytes32",
          "name": "",
          "type": "bytes32"
        }
      ],
      "stateMutability": "view",
      "type": "function"
    },
    {
      "inputs": [
        {
          "internalType": "address[]",
          "name": "beneficiaries_",
          "type": "address[]"
        },
        {
          "internalType": "uint256[]",
          "name": "startTimes_",
          "type": "uint256[]"
        },
        {
          "internalType": "uint256[]",
          "name": "durations_",
          "type": "uint256[]"
        },
        {
          "internalType": "address[]",
          "name": "tokens_",
          "type": "address[]"
        },
        {
          "internalType": "uint256[]",
          "name": "amounts_",
          "type": "uint256[]"
        }
      ],
      "name": "bulkDepositERC20",
      "outputs": [
        {
          "internalType": "uint256[]",
          "name": "ids",
          "type": "uint256[]"
        }
      ],
      "stateMutability": "nonpayable",
      "type": "function"
    },
    {
      "inputs": [
        {
          "internalType": "uint256",
          "name": "id_",
          "type": "uint256"
        }
      ],
      "name": "depositById",
      "outputs": [
        {
          "components": [
            {
              "internalType": "uint256",
              "name": "id",
              "type": "uint256"
            },
            {
              "internalType": "address",
              "name": "token",
              "type": "address"
            },
            {
              "internalType": "address",
              "name": "beneficiary",
              "type": "address"
            },
            {
              "internalType": "uint256",
              "name": "startTime",
              "type": "uint256"
            },
            {
              "internalType": "uint256",
              "name": "duration",
              "type": "uint256"
            },
            {
              "internalType": "uint256",
              "name": "value",
              "type": "uint256"
            },
            {
              "internalType": "uint256",
              "name": "released",
              "type": "uint256"
            }
          ],
          "internalType": "struct Vault.Deposit",
          "name": "",
          "type": "tuple"
        }
      ],
      "stateMutability": "view",
      "type": "function"
    },
    {
      "inputs": [
        {
          "internalType": "address",
          "name": "beneficiary_",
          "type": "address"
        },
        {
          "internalType": "uint256",
          "name": "startTime_",
          "type": "uint256"
        },
        {
          "internalType": "uint256",
          "name": "duration_",
          "type": "uint256"
        },
        {
          "internalType": "address",
          "name": "token_",
          "type": "address"
        },
        {
          "internalType": "uint256",
          "name": "amount_",
          "type": "uint256"
        }
      ],
      "name": "depositERC20",
      "outputs": [
        {
          "internalType": "uint256",
          "name": "",
          "type": "uint256"
        }
      ],
      "stateMutability": "nonpayable",
      "type": "function"
    },
    {
      "inputs": [
        {
          "internalType": "address",
          "name": "beneficiary_",
          "type": "address"
        }
      ],
      "name": "depositIdsByAddress",
      "outputs": [
        {
          "internalType": "uint256[]",
          "name": "",
          "type": "uint256[]"
        }
      ],
      "stateMutability": "view",
      "type": "function"
    },
    {
      "inputs": [
        {
          "internalType": "bytes32",
          "name": "role",
          "type": "bytes32"
        }
      ],
      "name": "getRoleAdmin",
      "outputs": [
        {
          "internalType": "bytes32",
          "name": "",
          "type": "bytes32"
        }
      ],
      "stateMutability": "view",
      "type": "function"
    },
    {
      "inputs": [
        {
          "internalType": "bytes32",
          "name": "role",
          "type": "bytes32"
        },
        {
          "internalType": "address",
          "name": "account",
          "type": "address"
        }
      ],
      "name": "grantRole",
      "outputs": [],
      "stateMutability": "nonpayable",
      "type": "function"
    },
    {
      "inputs": [
        {
          "internalType": "bytes32",
          "name": "role",
          "type": "bytes32"
        },
        {
          "internalType": "address",
          "name": "account",
          "type": "address"
        }
      ],
      "name": "hasRole",
      "outputs": [
        {
          "internalType": "bool",
          "name": "",
          "type": "bool"
        }
      ],
      "stateMutability": "view",
      "type": "function"
    },
    {
      "inputs": [
        {
          "internalType": "uint256",
          "name": "id_",
          "type": "uint256"
        }
      ],
      "name": "releasable",
      "outputs": [
        {
          "internalType": "uint256",
          "name": "",
          "type": "uint256"
        }
      ],
      "stateMutability": "view",
      "type": "function"
    },
    {
      "inputs": [
        {
          "internalType": "uint256",
          "name": "id_",
          "type": "uint256"
        }
      ],
      "name": "releaseERC20",
      "outputs": [],
      "stateMutability": "nonpayable",
      "type": "function"
    },
    {
      "inputs": [
        {
          "internalType": "uint256",
          "name": "id_",
          "type": "uint256"
        }
      ],
      "name": "released",
      "outputs": [
        {
          "internalType": "uint256",
          "name": "",
          "type": "uint256"
        }
      ],
      "stateMutability": "view",
      "type": "function"
    },
    {
      "inputs": [
        {
          "internalType": "bytes32",
          "name": "role",
          "type": "bytes32"
        },
        {
          "internalType": "address",
          "name": "account",
          "type": "address"
        }
      ],
      "name": "renounceRole",
      "outputs": [],
      "stateMutability": "nonpayable",
      "type": "function"
    },
    {
      "inputs": [
        {
          "internalType": "address",
          "name": "token_",
          "type": "address"
        },
        {
          "internalType": "uint256",
          "name": "amount_",
          "type": "uint256"
        }
      ],
      "name": "rescueERC20",
      "outputs": [],
      "stateMutability": "nonpayable",
      "type": "function"
    },
    {
      "inputs": [
        {
          "internalType": "uint256",
          "name": "amount_",
          "type": "uint256"
        }
      ],
      "name": "rescueETH",
      "outputs": [],
      "stateMutability": "nonpayable",
      "type": "function"
    },
    {
      "inputs": [
        {
          "internalType": "bytes32",
          "name": "role",
          "type": "bytes32"
        },
        {
          "internalType": "address",
          "name": "account",
          "type": "address"
        }
      ],
      "name": "revokeRole",
      "outputs": [],
      "stateMutability": "nonpayable",
      "type": "function"
    },
    {
      "inputs": [
        {
          "internalType": "bytes4",
          "name": "interfaceId",
          "type": "bytes4"
        }
      ],
      "name": "supportsInterface",
      "outputs": [
        {
          "internalType": "bool",
          "name": "",
          "type": "bool"
        }
      ],
      "stateMutability": "view",
      "type": "function"
    },
    {
      "inputs": [
        {
          "internalType": "uint256",
          "name": "id_",
          "type": "uint256"
        }
      ],
      "name": "vested",
      "outputs": [
        {
          "internalType": "uint256",
          "name": "",
          "type": "uint256"
        }
      ],
      "stateMutability": "view",
      "type": "function"
    },
    {
      "stateMutability": "payable",
      "type": "receive"
    }
  ],
  "bytecode": "0x608060405234801561001057600080fd5b5061001c600033610021565b6100c0565b6000828152602081815260408083206001600160a01b038516845290915290205460ff166100bc576000828152602081815260408083206001600160a01b03851684529091529020805460ff1916600117905561007b3390565b6001600160a01b0316816001600160a01b0316837f2f8788117e7eff1d82e926ec794901d17c78024a50270940304540a733656f0d60405160405180910390a45b5050565b611a97806100cf6000396000f3fe6080604052600436106101025760003560e01c80638cd4426d116100955780639ed5b2ab116100645780639ed5b2ab1461032f578063a217fddf1461034f578063a94d373b14610364578063d547741f14610384578063e4bf01a8146103a457600080fd5b80638cd4426d146102af57806391d14854146102cf578063968fb8ba146102ef5780639e252f001461030f57600080fd5b80632f2ff15d116100d15780632f2ff15d146101d057806336568abe146101f0578063497a7121146102105780636805a4d81461023057600080fd5b806301ffc9a71461010e57806312e0b0c4146101435780631457a5aa14610165578063248a9ca31461019257600080fd5b3661010957005b600080fd5b34801561011a57600080fd5b5061012e610129366004611530565b6103c4565b60405190151581526020015b60405180910390f35b34801561014f57600080fd5b5061016361015e36600461155a565b6103fb565b005b34801561017157600080fd5b5061018561018036600461158f565b6104df565b60405161013a91906115aa565b34801561019e57600080fd5b506101c26101ad36600461155a565b60009081526020819052604090206001015490565b60405190815260200161013a565b3480156101dc57600080fd5b506101636101eb3660046115ee565b610503565b3480156101fc57600080fd5b5061016361020b3660046115ee565b610528565b34801561021c57600080fd5b5061018561022b366004611752565b6105ab565b34801561023c57600080fd5b5061025061024b36600461155a565b610743565b60408051825181526020808401516001600160a01b0390811691830191909152838301511691810191909152606080830151908201526080808301519082015260a0808301519082015260c0918201519181019190915260e00161013a565b3480156102bb57600080fd5b506101636102ca366004611824565b61081b565b3480156102db57600080fd5b5061012e6102ea3660046115ee565b6108df565b3480156102fb57600080fd5b506101c261030a36600461155a565b610908565b34801561031b57600080fd5b5061016361032a36600461155a565b610913565b34801561033b57600080fd5b506101c261034a36600461184e565b61095f565b34801561035b57600080fd5b506101c2600081565b34801561037057600080fd5b506101c261037f36600461155a565b6109cd565b34801561039057600080fd5b5061016361039f3660046115ee565b6109d8565b3480156103b057600080fd5b506101c26103bf36600461155a565b6109fd565b60006001600160e01b03198216637965db0b60e01b14806103f557506301ffc9a760e01b6001600160e01b03198316145b92915050565b6000600182815481106104105761041061189c565b906000526020600020906007020190508060030154421161043057600080fd5b60028101546001600160a01b0316331461044957600080fd5b600061045483610a04565b90508082600601600082825461046a91906118c8565b9091555050600182015460408051858152602081018490526001600160a01b03909216917f35ad0d3d269896cac538d01431b8cfa94b738f630925f2ef1b9aecf4bed14a89910160405180910390a2600182015460028301546104da916001600160a01b03908116911683610a22565b505050565b6001600160a01b03811660009081526002602052604090206060906103f590610a85565b60008281526020819052604090206001015461051e81610a99565b6104da8383610aa6565b6001600160a01b038116331461059d5760405162461bcd60e51b815260206004820152602f60248201527f416363657373436f6e74726f6c3a2063616e206f6e6c792072656e6f756e636560448201526e103937b632b9903337b91039b2b63360891b60648201526084015b60405180910390fd5b6105a78282610b2a565b5050565b606060006105b881610a99565b86518651146105c657600080fd5b86518551146105d457600080fd5b86518451146105e257600080fd5b86518351146105f057600080fd5b865167ffffffffffffffff81111561060a5761060a61161a565b604051908082528060200260200182016040528015610633578160200160208202803683370190505b50915060005b87518110156107015760006106ce8983815181106106595761065961189c565b60200260200101518984815181106106735761067361189c565b602002602001015189858151811061068d5761068d61189c565b60200260200101518986815181106106a7576106a761189c565b60200260200101518987815181106106c1576106c161189c565b6020026020010151610b8f565b9050808483815181106106e3576106e361189c565b602090810291909101015250806106f9816118db565b915050610639565b507f5971f3d5ddb2f80ab396b8b4f31c32e21f439d2101cfe35050efea44d88955ef8260405161073191906115aa565b60405180910390a15095945050505050565b6107956040518060e001604052806000815260200160006001600160a01b0316815260200160006001600160a01b03168152602001600081526020016000815260200160008152602001600081525090565b600182815481106107a8576107a861189c565b60009182526020918290206040805160e08101825260079093029091018054835260018101546001600160a01b03908116948401949094526002810154909316908201526003820154606082015260048201546080820152600582015460a082015260069091015460c082015292915050565b600061082681610a99565b60405163a9059cbb60e01b8152336004820152602481018390526001600160a01b0384169063a9059cbb906044016020604051808303816000875af1158015610873573d6000803e3d6000fd5b505050506040513d601f19601f8201168201806040525081019061089791906118f4565b50604080516001600160a01b0385168152602081018490527f31825d4c640aea76c1e0968b29b11967c9a93a99b65072cf8db892b7ab737bbf910160405180910390a1505050565b6000918252602082815260408084206001600160a01b0393909316845291905290205460ff1690565b60006103f582610d5d565b600061091e81610a99565b6109283383610df6565b6040518281527f103add520cfd30dd0ad5e069258f06d08bc373a5079338aacf71cd52aa2b969f9060200160405180910390a15050565b600061096d83333085610f0f565b600061097c8787878787610b8f565b60408051828152602081018690529192506001600160a01b038616917f29e8ab3a5ee1054a4bad5627fd68b00e7cb87684fe0d98f8625af41385ff5afe910160405180910390a29695505050505050565b60006103f582610f4d565b6000828152602081905260409020600101546109f381610a99565b6104da8383610b2a565b60006103f5825b6000610a0f82610f4d565b610a1883610d5d565b6103f59190611916565b6040516001600160a01b0383166024820152604481018290526104da90849063a9059cbb60e01b906064015b60408051601f198184030181529190526020810180516001600160e01b03166001600160e01b031990931692909217909152610fda565b60606000610a92836110ac565b9392505050565b610aa38133611108565b50565b610ab082826108df565b6105a7576000828152602081815260408083206001600160a01b03851684529091529020805460ff19166001179055610ae63390565b6001600160a01b0316816001600160a01b0316837f2f8788117e7eff1d82e926ec794901d17c78024a50270940304540a733656f0d60405160405180910390a45050565b610b3482826108df565b156105a7576000828152602081815260408083206001600160a01b0385168085529252808320805460ff1916905551339285917ff6391f5c32d9c69d2a47ea670b442974b53935d1edc7fd64eb21e047a839171b9190a45050565b60006001600160a01b038616610ba457600080fd5b60008211610bb157600080fd5b600180546040805160e0810182528281526001600160a01b0380881660208084019182528c8316848601818152606086018e8152608087018e815260a088018d8152600060c08a018181528c8e018e559c8152895160078d027fb10e2d527612073b26eecdfd717e6a320cf44b4afac2b0732d9fcbe2b7fa0cf681019190915597517fb10e2d527612073b26eecdfd717e6a320cf44b4afac2b0732d9fcbe2b7fa0cf789018054918b166001600160a01b031992831617905594517fb10e2d527612073b26eecdfd717e6a320cf44b4afac2b0732d9fcbe2b7fa0cf88901805491909a1695169490941790975590517fb10e2d527612073b26eecdfd717e6a320cf44b4afac2b0732d9fcbe2b7fa0cf9860155517fb10e2d527612073b26eecdfd717e6a320cf44b4afac2b0732d9fcbe2b7fa0cfa85015593517fb10e2d527612073b26eecdfd717e6a320cf44b4afac2b0732d9fcbe2b7fa0cfb84015596517fb10e2d527612073b26eecdfd717e6a320cf44b4afac2b0732d9fcbe2b7fa0cfc9092019190915594815260029094529220909190610d50908361116c565b5090979650505050505050565b60008060018381548110610d7357610d7361189c565b60009182526020918290206040805160e08101825260079093029091018054835260018101546001600160a01b0390811694840194909452600281015490931690820152600382015460608201819052600483015460808301819052600584015460a0840181905260069094015460c0840152919350610a929290919042611178565b80471015610e465760405162461bcd60e51b815260206004820152601d60248201527f416464726573733a20696e73756666696369656e742062616c616e63650000006044820152606401610594565b6000826001600160a01b03168260405160006040518083038185875af1925050503d8060008114610e93576040519150601f19603f3d011682016040523d82523d6000602084013e610e98565b606091505b50509050806104da5760405162461bcd60e51b815260206004820152603a60248201527f416464726573733a20756e61626c6520746f2073656e642076616c75652c207260448201527f6563697069656e74206d617920686176652072657665727465640000000000006064820152608401610594565b6040516001600160a01b0380851660248301528316604482015260648101829052610f479085906323b872dd60e01b90608401610a4e565b50505050565b60008060018381548110610f6357610f6361189c565b60009182526020918290206040805160e08101825260079093029091018054835260018101546001600160a01b03908116948401949094526002810154909316908201526003820154606082015260048201546080820152600582015460a082015260069091015460c09091018190529392505050565b600061102f826040518060400160405280602081526020017f5361666545524332303a206c6f772d6c6576656c2063616c6c206661696c6564815250856001600160a01b03166111cc9092919063ffffffff16565b8051909150156104da578080602001905181019061104d91906118f4565b6104da5760405162461bcd60e51b815260206004820152602a60248201527f5361666545524332303a204552433230206f7065726174696f6e20646964206e6044820152691bdd081cdd58d8d9595960b21b6064820152608401610594565b6060816000018054806020026020016040519081016040528092919081815260200182805480156110fc57602002820191906000526020600020905b8154815260200190600101908083116110e8575b50505050509050919050565b61111282826108df565b6105a75761112a816001600160a01b031660146111db565b6111358360206111db565b60405160200161114692919061194d565b60408051601f198184030181529082905262461bcd60e51b8252610594916004016119c2565b6000610a928383611377565b60008482101561118a575060006111c4565b61119484866118c8565b8211156111a25750816111c4565b836111ad8684611916565b6111b790856119f5565b6111c19190611a0c565b90505b949350505050565b60606111c484846000856113c6565b606060006111ea8360026119f5565b6111f59060026118c8565b67ffffffffffffffff81111561120d5761120d61161a565b6040519080825280601f01601f191660200182016040528015611237576020820181803683370190505b509050600360fc1b816000815181106112525761125261189c565b60200101906001600160f81b031916908160001a905350600f60fb1b816001815181106112815761128161189c565b60200101906001600160f81b031916908160001a90535060006112a58460026119f5565b6112b09060016118c8565b90505b6001811115611328576f181899199a1a9b1b9c1cb0b131b232b360811b85600f16601081106112e4576112e461189c565b1a60f81b8282815181106112fa576112fa61189c565b60200101906001600160f81b031916908160001a90535060049490941c9361132181611a2e565b90506112b3565b508315610a925760405162461bcd60e51b815260206004820181905260248201527f537472696e67733a20686578206c656e67746820696e73756666696369656e746044820152606401610594565b60008181526001830160205260408120546113be575081546001818101845560008481526020808220909301849055845484825282860190935260409020919091556103f5565b5060006103f5565b6060824710156114275760405162461bcd60e51b815260206004820152602660248201527f416464726573733a20696e73756666696369656e742062616c616e636520666f6044820152651c8818d85b1b60d21b6064820152608401610594565b6001600160a01b0385163b61147e5760405162461bcd60e51b815260206004820152601d60248201527f416464726573733a2063616c6c20746f206e6f6e2d636f6e74726163740000006044820152606401610594565b600080866001600160a01b0316858760405161149a9190611a45565b60006040518083038185875af1925050503d80600081146114d7576040519150601f19603f3d011682016040523d82523d6000602084013e6114dc565b606091505b50915091506114ec8282866114f7565b979650505050505050565b60608315611506575081610a92565b8251156115165782518084602001fd5b8160405162461bcd60e51b815260040161059491906119c2565b60006020828403121561154257600080fd5b81356001600160e01b031981168114610a9257600080fd5b60006020828403121561156c57600080fd5b5035919050565b80356001600160a01b038116811461158a57600080fd5b919050565b6000602082840312156115a157600080fd5b610a9282611573565b6020808252825182820181905260009190848201906040850190845b818110156115e2578351835292840192918401916001016115c6565b50909695505050505050565b6000806040838503121561160157600080fd5b8235915061161160208401611573565b90509250929050565b634e487b7160e01b600052604160045260246000fd5b604051601f8201601f1916810167ffffffffffffffff811182821017156116595761165961161a565b604052919050565b600067ffffffffffffffff82111561167b5761167b61161a565b5060051b60200190565b600082601f83011261169657600080fd5b813560206116ab6116a683611661565b611630565b82815260059290921b840181019181810190868411156116ca57600080fd5b8286015b848110156116ec576116df81611573565b83529183019183016116ce565b509695505050505050565b600082601f83011261170857600080fd5b813560206117186116a683611661565b82815260059290921b8401810191818101908684111561173757600080fd5b8286015b848110156116ec578035835291830191830161173b565b600080600080600060a0868803121561176a57600080fd5b853567ffffffffffffffff8082111561178257600080fd5b61178e89838a01611685565b965060208801359150808211156117a457600080fd5b6117b089838a016116f7565b955060408801359150808211156117c657600080fd5b6117d289838a016116f7565b945060608801359150808211156117e857600080fd5b6117f489838a01611685565b9350608088013591508082111561180a57600080fd5b50611817888289016116f7565b9150509295509295909350565b6000806040838503121561183757600080fd5b61184083611573565b946020939093013593505050565b600080600080600060a0868803121561186657600080fd5b61186f86611573565b9450602086013593506040860135925061188b60608701611573565b949793965091946080013592915050565b634e487b7160e01b600052603260045260246000fd5b634e487b7160e01b600052601160045260246000fd5b808201808211156103f5576103f56118b2565b6000600182016118ed576118ed6118b2565b5060010190565b60006020828403121561190657600080fd5b81518015158114610a9257600080fd5b818103818111156103f5576103f56118b2565b60005b8381101561194457818101518382015260200161192c565b50506000910152565b7f416363657373436f6e74726f6c3a206163636f756e7420000000000000000000815260008351611985816017850160208801611929565b7001034b99036b4b9b9b4b733903937b6329607d1b60179184019182015283516119b6816028840160208801611929565b01602801949350505050565b60208152600082518060208401526119e1816040850160208701611929565b601f01601f19169190910160400192915050565b80820281158282048414176103f5576103f56118b2565b600082611a2957634e487b7160e01b600052601260045260246000fd5b500490565b600081611a3d57611a3d6118b2565b506000190190565b60008251611a57818460208701611929565b919091019291505056fea26469706673582212202043b582b901a620155f3ccc92c1730904b813114c2f8281f7ae882cc1ae7a5764736f6c63430008110033",
  "linkReferences": {},
  "deployedLinkReferences": {}
}